{
  "abi": [
    {
      "inputs": [],
      "name": "count",
      "outputs": [
        {
          "internalType": "uint256",
          "name": "",
          "type": "uint256"
        }
      ],
      "stateMutability": "view",
      "type": "function"
    },
    {
      "inputs": [],
      "name": "dec",
      "outputs": [],
      "stateMutability": "nonpayable",
      "type": "function"
    },
    {
      "inputs": [],
      "name": "inc",
      "outputs": [],
      "stateMutability": "nonpayable",
      "type": "function"
    }
  ],
  "bytecode": {
    "object": "0x608060405234801561001057600080fd5b50610102806100206000396000f3fe6080604052348015600f57600080fd5b5060043610603c5760003560e01c806306661abd146041578063371303c014605b578063b3bcfa82146063575b600080fd5b604960005481565b60405190815260200160405180910390f35b60616069565b005b60616080565b60016000808282546079919060a6565b9091555050565b60016000808282546079919060bc565b634e487b7160e01b600052601160045260246000fd5b8082018082111560b65760b66090565b92915050565b8181038181111560b65760b6609056fea2646970667358221220405d6fe2745c8df2d60a1094ad1da7a3b7a8f0b148dea0865d483e6956b1477564736f6c63430008130033",
    "linkReferences": {}
  },
  "methodIdentifiers": {
    "count()": "06661abd",
    "dec()": "b3bcfa82",
    "inc()": "371303c0"
  },
  "id": 17
}