{
  "abi": [
    {
      "inputs": [],
      "name": "count",
      "outputs": [
        {
          "internalType": "uint256",
          "name": "",
          "type": "uint256"
        }
      ],
      "stateMutability": "view",
      "type": "function"
    },
    {
      "inputs": [],
      "name": "dec",
      "outputs": [],
      "stateMutability": "nonpayable",
      "type": "function"
    },
    {
      "inputs": [],
      "name": "inc",
      "outputs": [],
      "stateMutability": "nonpayable",
      "type": "function"
    }
  ],
  "bytecode": {
    "object": "0x608060405234801561001057600080fd5b50610235806100206000396000f3fe608060405234801561001057600080fd5b50600436106100415760003560e01c806306661abd14610046578063371303c014610061578063b3bcfa821461006b575b600080fd5b61004f60005481565b60405190815260200160405180910390f35b610069610073565b005b6100696100bc565b6100a36040518060400160405280600c81526020016b125b98dc99585b595b9d195960a21b8152506000546100fe565b60016000808282546100b5919061017e565b9091555050565b6100ec6040518060400160405280600c81526020016b111958dc99585b595b9d195960a21b8152506000546100fe565b60016000808282546100b59190610197565b61014382826040516024016101149291906101aa565b60408051601f198184030181529190526020810180516001600160e01b03166309710a9d60e41b179052610147565b5050565b80516a636f6e736f6c652e6c6f67602083016000808483855afa5050505050565b634e487b7160e01b600052601160045260246000fd5b8082018082111561019157610191610168565b92915050565b8181038181111561019157610191610168565b604081526000835180604084015260005b818110156101d857602081870181015160608684010152016101bb565b506000606082850101526060601f19601f830116840101915050826020830152939250505056fea2646970667358221220d152ce37cd6878214f699f7986af2c990be90a2062738c4b1a0aa95ec767c84264736f6c63430008130033",
    "linkReferences": {}
  },
  "methodIdentifiers": {
    "count()": "06661abd",
    "dec()": "b3bcfa82",
    "inc()": "371303c0"
  },
  "id": 17
}